:020000040000FA
:100000007E28031783168C010C1483120C08031727
:100010008D0A7928030103178C0083168C010C15B7
:1000200055308D00AA308D008C148C1815280C11B9
:1000300083128D0A7928A301A200FF30A207031CB6
:10004000A307031C79280330A100DF3029201D28D5
:10005000A101E83EA000A109FC30031C3228A00742
:1000600003182F28A0076400A10F2F282018382874
:10007000A01C3C2800003C280800013EA7000A30D4
:10008000A200A3014720A70B422824080800A501CD
:10009000A4011030A600210DA40DA50D2208A40274
:1000A0002308031C230FA50203185D282208A407B8
:1000B00023080318230FA5070310A00DA10DA60BFD
:1000C0004B28200879281030A800A101A001A70C16
:1000D000A60C031C71282208A00723080318230F6D
:1000E000A107A10CA00CA50CA40CA80B6728240840
:1000F0007928831303138312640008008316F030F9
:10010000860088018312BF01C001BD01BE018801C4
:1001100006140A308A011B208A110A12AA2006102E
:1001200086140A308A011B208A110A12AA2086101E
:1001300006150A308A011B208A110A12AA2006110C
:1001400086150A308A011B208A110A12AA208611FC
:100150008A01882864000608113C8A110A12031DCE
:10016000DB2864003D08003C8A110A12031DC928DF
:1001700003178D01073003138A010B200130BD00E6
:1001800003178D0103138A01012088008A110A12C6
:10019000D828031701308D00073003138A010B2084
:1001A000BD01031701308D0003138A01012088006F
:1001B0008A110A12DE2A64000608213C8A110A12FA
:1001C000031D0C2964003D08003C8A110A12031D1E
:1001D000FA2803178D01083003138A010B20013020
:1001E000BD0003178D0103138A01012088008A11C5
:1001F0000A120929031701308D00031340088A01F0
:100200000B20BD01031701308D0003138A0101206B
:1002100088008A110A12DE2A64000608413C8A110D
:100220000A12031D3D2964003D08003C8A110A1290
:10023000031D2B2903178D01093003138A010B209D
:100240000130BD0003178D0103138A0101208800CE
:100250008A110A123A29031701308D00093003135D
:100260008A010B20BD01031701308D0003138A01A1
:10027000012088008A110A12DE2A64000608813CE7
:100280008A110A12031D49292F30BE008A110A1251
:10029000DE2A64000608123C8A110A12031D7A291C
:1002A00064003D08003C8A110A12031D68290317E7
:1002B0008D01043003138A010B200130BD000317A8
:1002C0008D0103138A01012088008A110A127729FF
:1002D000031701308D00043003138A010B20BD0188
:1002E000031701308D0003138A01012088008A1151
:1002F0000A12DE2A64000608223C8A110A12031D33
:10030000AB2964003D08003C8A110A12031D99299B
:1003100003178D01053003138A010B200130BD0046
:1003200003178D0103138A01012088008A110A1224
:10033000A829031701308D00053003138A010B2013
:10034000BD01031701308D0003138A0101208800CD
:100350008A110A12DE2A64000608423C8A110A1237
:10036000031DDC2964003D08003C8A110A12031DAC
:10037000CA2903178D01063003138A010B200130AF
:10038000BD0003178D0103138A01012088008A1123
:100390000A12D929031701308D00063003138A0190
:1003A0000B20BD01031701308D0003138A010120CA
:1003B00088008A110A12DE2A64000608823C8A112B
:1003C0000A12031DE8292A30BE008A110A12DE2A09
:1003D00064000608143C8A110A12031D192A6400DD
:1003E0003D08003C8A110A12031D072A03178D01DC
:1003F000013003138A010B200130BD0003178D016A
:1004000003138A01012088008A110A12162A031791
:1004100001308D00013003138A010B20BD01031749
:1004200001308D0003138A01012088008A110A120D
:10043000DE2A64000608243C8A110A12031D4A2A97
:1004400064003D08003C8A110A12031D382A031774
:100450008D01023003138A010B200130BD00031708
:100460008D0103138A01012088008A110A12472A8C
:10047000031701308D00023003138A010B20BD01E8
:10048000031701308D0003138A01012088008A11AF
:100490000A12DE2A64000608443C8A110A12031D6F
:1004A0007B2A64003D08003C8A110A12031D692A58
:1004B00003178D01033003138A010B200130BD00A7
:1004C00003178D0103138A01012088008A110A1283
:1004D000782A031701308D00033003138A010B20A3
:1004E000BD01031701308D0003138A01012088002C
:1004F0008A110A12DE2A64000608843C8A110A1254
:10050000031D872A2D30BE008A110A12DE2A6400DC
:100510000608183C8A110A12031D972A6330BE0090
:10052000BF01C001BD0188018A110A12DE2A6400E0
:100530000608283C8A110A12031DC82A64003D08D7
:10054000003C8A110A12031DB62A03178D010030E0
:1005500003138A010B200130BD0003178D01031323
:100560008A01012088008A110A12C52A0317013066
:100570008D00003003138A010B20BD0103170130E9
:100580008D0003138A01012088008A110A12DE2AD5
:1005900064000608483C8A110A12031DD52A8A11F4
:1005A0000A12DF228A110A12DE2A64000608883C39
:1005B0008A110A12031DDE2A2B30BE000800031721
:1005C0008D0103138A010120BF00031701308D0044
:1005D00003138A010120C00064003E082B3C8A11ED
:1005E0000A12031D162B3F084007B800B901B90DC8
:1005F0003808A0003908A10001308A013D20BC0064
:100600003F084007B800B901B90D3C08A600A70192
:100610000630A200A3018A016320BA002508BB00AE
:1006200038083A0788008A110A12692B64003E08CC
:100630002D3C8A110A12031D232B40083F0288001B
:100640008A110A12692B64003E082F3C8A110A1293
:10065000031D362B3F08A000A1014008A200A30102
:100660008A01472088008A110A12692B64003E081B
:100670002A3C8A110A12031D692B3F08A600A70114
:100680004008A200A3018A016320B8002508B90030
:100690003808A0003908A10001308A013D20BC00C3
:1006A0003F08A600A7014008A200A3018A01632019
:1006B000B8002508B9003C08A600A7010630A20032
:1006C000A3018A016320BA002508BB0038083A0755
:0406D0008800080096
:02400E00753FFC
:00000001FF
