:020000040000FA
:10000000B201982898181812181664008C1E05283A
:100010001A080314932864000C1E0B28990003147B
:100020009328A70009110910091083160911091056
:100030000910880183122708B21839283A30A10024
:10004000FC3063203330A6004C201030A100683013
:1000500063204C20643062204C20383038200C3033
:1000600038200130382006303820B21427083928CB
:100070003214A600321C47280910033C031C4C28EC
:100080004C200730A100D030632003140800321444
:10009000FE3C03199328091409152608880032101C
:1000A00009113230622003140800A301A200FF30BE
:1000B000A207031CA307031C93280330A100DF3011
:1000C00063205728A101E83EA000A109FC30031CD1
:1000D0006C28A00703186928A0076400A10F6928ED
:1000E00020187228A01C7628000076280800A1019C
:1000F000A301A20004307C28A80023082102031DCC
:10010000832822082002043003180130031902302A
:100110002805031DFF3093280038031DFF30040518
:10012000031DFF3093288313031383126400080018
:10013000831619309900243098008312903098006B
:100140008316880107309F00643083128A0155208E
:10015000FE308A01112040308A0111200E308A01C0
:1001600011200E308A01112000308A011120003048
:100170008A01112000308A01112000308A011120EB
:1001800000308A011120FE308A01112048308A0196
:1001900011200E308A0111200E308A011120043006
:1001A0008A01112004308A01112004308A011120B3
:1001B00000308A01112000308A011120FE308A01AE
:1001C000112050308A0111200E308A0111200E308A
:1001D0008A01112004308A0111201C308A0111206B
:1001E00004308A01112000308A01112000308A0178
:1001F0001120FE308A01112058308A0111200E3062
:100200008A0111200E308A01112004308A01112048
:100210001F308A01112004308A01112000308A0128
:10022000112000308A011120FE308A011120603037
:100230008A0111200E308A0111200E308A0111200E
:1002400004308A0111201F308A01112004308A01F4
:10025000112008308A01112010308A011120FE304F
:100260008A01112068308A0111200E308A01112084
:100270000E308A01112004308A0111201F308A01BA
:10028000112004308A0111200A308A011120113016
:100290008A011120FE308A01112001308A011120CB
:1002A000C101C30131308A010B202E308A010B209D
:1002B00020308A010B206F308A010B2079308A01AF
:1002C0000B2075308A010B206E308A010B206330C1
:1002D0008A010B2075308A010B2020308A010B2007
:1002E0006B308A010B2065308A010B206C308A014B
:1002F0000B2069308A010B206D308A010B2065309C
:100300008A010B2079308A010B2069308A010B2089
:1003100020308A010B2067308A010B2069308A0166
:100320000B2072308A010B2073308A010B20693058
:100330008A010B206E308A010B203A308A010B2093
:1003400020308A010B200D308A010B200A308A01EF
:100350000B20C4016400053044028A110A120318FC
:10036000C2298A010220BD00BE014408383E840033
:100370003D0880002A308A010B20C40A8A110A1223
:10038000031DAA293A308A010B2020308A010B2054
:100390006B308A010B2065308A010B206C308A019A
:1003A0000B2069308A010B206D308A010B206530EB
:1003B0008A010B2020308A010B2067308A010B2034
:1003C00069308A010B2072308A010B2069308A0162
:1003D0000B206C308A010B2064308A010B206930BD
:1003E0008A010B200D308A010B200A308A010B2074
:1003F00032308A010B202E308A010B2020308A01F6
:100400000B206F308A010B2079308A010B20753068
:100410008A010B206E308A010B2063308A010B2089
:1004200075308A010B2020308A010B2074308A013C
:100430000B2061308A010B2068308A010B206D305F
:100440008A010B2069308A010B206E308A010B2053
:100450006C308A010B2065308A010B2072308A01D2
:100460000B2069308A010B2020308A010B20673075
:100470008A010B2069308A010B2072308A010B201F
:1004800073308A010B2069308A010B206E308A019B
:100490000B203A308A010B2020308A010B204108C2
:1004A000A00006308A017720BD004308A000053077
:1004B0008A017720BF003D0884003F088A018C2014
:1004C000BF00C00064003F0840048A110A120319EB
:1004D000B42AC2018A010220C60046088A010B2004
:1004E000C5016400053045028A110A1203189A2AD0
:1004F0004508383E84000008BD0064003D084602FF
:100500008A110A12031D952AFE308A0111208030BB
:100510004507BD00BE01BE0D3D088A0111204608F9
:100520008A011120C30A0130C200C50A8A110A12C9
:10053000031D712A64004208003C8A110A12031D3F
:10054000B22AC10AFE308A01112088308A011120A6
:10055000FF304107BD00FF300318013EBE003D08DB
:100560008A0111208A014F2A64004308053C8A1140
:100570000A12031DDF2AFE308A011120C0308A01D1
:1005800011206B308A01112061308A0111207A30EC
:100590008A01112061308A0111206E308A011120F8
:1005A00064308A01112069308A0111206E308A017D
:1005B000112069308A0111207A308A0111206400EB
:1005C0004108063C8A110A12031D0D2BFE308A01D8
:1005D0001120C0308A0111206B308A011120613056
:1005E0008A01112079308A01112062308A0111209C
:1005F00065308A01112074308A01112074308A011B
:10060000112069308A0111206E308A011120693071
:100610008A0111207A308A0111200730A300D030DE
:080620008A0156208A014A29D3
:02400E00753FFC
:00000001FF
