:020000040000FA
:100000007E28031783168C010C1483120C08031727
:100010008D0A7928030103178C0083168C010C15B7
:1000200055308D00AA308D008C148C1815280C11B9
:1000300083128D0A7928A301A200FF30A207031CB6
:10004000A307031C79280330A100DF3029201D28D5
:10005000A101E83EA000A109FC30031C3228A00742
:1000600003182F28A0076400A10F2F282018382874
:10007000A01C3C2800003C280800013EA7000A30D4
:10008000A200A3014720A70B422824080800A501CD
:10009000A4011030A600210DA40DA50D2208A40274
:1000A0002308031C230FA50203185D282208A407B8
:1000B00023080318230FA5070310A00DA10DA60BFD
:1000C0004B28200879281030A800A101A001A70C16
:1000D000A60C031C71282208A00723080318230F6D
:1000E000A107A10CA00CA50CA40CA80B6728240840
:1000F0007928831303138312640008008316860192
:100100008801831203178D01093003138A010B2024
:10011000031701308D00083003138A010B200317E9
:1001200002308D00073003138A010B2003170330C0
:100130008D00063003138A010B20031704308D0055
:10014000053003138A010B20031705308D0004309E
:1001500003138A010B20031706308D0010300313A0
:100160008A010B20031707308D00113003138A0119
:100170000B20031708308D001C3003138A010B205D
:10018000031709308D00273003138A010B20BA01B1
:1001900064000A303A028A110A120318F5283A0854
:1001A00003178D0003138A010120BC003C08A00046
:1001B000A10101308A013D20BB003B08A600A70138
:1001C0000630A200A3018A016320B8002508B90007
:1001D00038083C0788003A088600BA0A0130A300B4
:0E01E000F4308A011C208A01C8288A01C72831
:02400E00753FFC
:00000001FF
