:020000040000FA
:10000000B201A828A501A400B3172730A30010301F
:1000100015200330A300E8301520A301643015201B
:10002000A3010A30152024082028A2002508A100D9
:100030002408A00087202008031DB313B31B080069
:10004000303EA70009110910091083160911091083
:100050000910880183122708B21849283A30A100F4
:10006000FC3073203330A6005C201030A1006830D3
:1000700073205C20643072205C20383048200C30C3
:1000800048200130482006304820B214270849286B
:100090003214A600321C57280910033C031C5C28AC
:1000A0005C200730A100D030732003140800321404
:1000B000FE3C0319A32809140915260888003210EC
:1000C00009113230722003140800A301A200FF308E
:1000D000A207031CA307031CA3280330A100DF30E1
:1000E00073206728A101E83EA000A109FC30031C91
:1000F0007C28A00703187928A0076400A10F79289D
:1001000020188228A01C8628000086280800A50147
:10011000A4011030A600210DA40DA50D2208A402F3
:100120002308031C230FA50203189D282208A407F7
:1001300023080318230FA5070310A00DA10DA60B7C
:100140008B282008A328831303138312640008005C
:10015000831688010514851407309F0064308312CC
:100160008A016520B9016400183039028A110A1227
:1001700003188729B80164003C3038028A110A123A
:1001800003188229BA0164003C303A028A110A122B
:1001900003187D290330A300E8308A016620FE3071
:1001A0008A01212001308A01212064000A303902AD
:1001B0008A110A120318F128FE308A0121208030AA
:1001C0008A01212000308A010220FE308A0121208C
:1001D00081308A01212039088A0102208A110A12FD
:1001E000FA28FE308A01212080308A012120390836
:1001F0008A010220FE308A01212082308A012120DA
:100200003A308A01212064000A3038028A110A1229
:1002100003181F29FE308A01212083308A01212002
:1002200000308A010220FE308A01212084308A01B8
:10023000212038088A0102208A110A122829FE305A
:100240008A01212083308A01212038088A01022076
:10025000FE308A01212085308A0121203A308A012E
:10026000212064000A303A028A110A1203184D292B
:10027000FE308A01212086308A01212000308A0147
:100280000220FE308A01212087308A0121203A088D
:100290008A0102208A110A125629FE308A01212081
:1002A00086308A0121203A088A01022064008A11DE
:1002B0000A120518672964003908173C8A110A12C6
:1002C000031D6629B9018A110A126729B90A640057
:1002D0008A110A1285187829640038083B3C8A1173
:1002E0000A12031D7729B8018A110A127829B80A5F
:1002F000BA0A8A110A12031DC328B80A8A110A12FF
:10030000031DBB28B90A8A110A12031DB3288A01EA
:02031000B22811
:02400E00753FFC
:00000001FF
