:020000040000FA
:10000000B2016D28A7000911091009108316091102
:1000100009100910880183122708B2182A283A30DB
:10002000A100FC3054203330A6003D201030A10048
:10003000683054203D20643053203D203830292042
:100040000C3029200130292006302920B21427083D
:100050002A283214A600321C38280910033C031C3D
:100060003D283D200730A100D03054200314080063
:100070003214FE3C03196828091409152608880063
:10008000321009113230532003140800A301A200DA
:10009000FF30A207031CA307031C68280330A1003C
:1000A000DF3054204828A101E83EA000A109FC301F
:1000B000031C5D28A00703185A28A0076400A10F9D
:1000C0005A2820186328A01C672800006728080009
:1000D00083130313831264000800831686018801CA
:1000E00005148514051507309F00643083128A01BA
:1000F00046208601FE308A01022040308A0102201B
:1001000006308A01022004308A01022004308A016C
:10011000022004308A01022004308A0102200430C7
:100120008A0102200C308A010220FE308A0102205E
:1001300048308A01022006308A01022008308A01F4
:10014000022008308A01022004308A010220043093
:100150008A01022002308A01022006308A01022030
:10016000FE308A01022050308A01022000308A01CC
:10017000022000308A01022010308A0102201F3044
:100180008A01022001308A01022000308A01022007
:1001900000308A010220FE308A01022058308A0194
:1001A00002200C308A01022004308A01022004302F
:1001B0008A01022004308A01022004308A010220D0
:1001C00004308A01022006308A010220FE308A01B2
:1001D000022060308A01022006308A0102200230AB
:1001E0008A01022004308A01022004308A010220A0
:1001F00008308A01022008308A01022006308A0174
:100200000220FE308A01022068308A01022000307C
:100210008A01022000308A01022001308A01022076
:100220001F308A01022010308A01022000308A012A
:10023000022000308A01022064008A110A12051887
:1002400023290130860064008A110A1285182A29A0
:100250000230860064008A110A12051930298601CD
:10026000FE308A01022001308A0102204D308A01CD
:1002700002206F308A01022074308A0102206F3020
:100280008A01022072308A01022020308A01022075
:100290003A308A01022020308A01022064000608D8
:1002A000023C8A110A12031D9829B8016400033028
:1002B00038028A110A1203186E29FE308A010220C0
:1002C00088308A01022038088A01022064308A01BD
:1002D0004620B80A8A110A12031D5629FE308A01E7
:1002E0000220C0308A01022067308A010220653076
:1002F0008A01022072308A01022069308A010220BC
:1003000020308A01022064308A0102206F308A0185
:1003100002206E308A01022075308A010220793075
:100320008A0102206F308A01022072308A01022085
:1003300064000608013C8A110A12031DE6290330F5
:10034000B8006400063038028A110A120318B9296D
:10035000FE308A01022088308A01022038088A0192
:10036000022064308A014620B80A8A110A12031D4D
:10037000A129FE308A010220C0308A0102206930A2
:100380008A0102206C308A01022065308A01022035
:1003900072308A01022069308A01022020308A01ED
:1003A000022064308A0102206F308A0102206E3000
:1003B0008A01022075308A01022079308A010220E8
:1003C0006F308A01022072308A0102200330A300BC
:0A03D000E8308A0147208A011C2949
:02400E00753FFC
:00000001FF
