:020000040000FA
:100000004628A301A200FF30A207031CA307031C7C
:1000100041280330A100DF300F200328A101E83E72
:10002000A000A109FC30031C1828A00703181528FC
:10003000A0076400A10F152820181E28A01C222844
:100040000000222808000310A00DA10DFF3E031898
:100050002328200841281030A800A101A001A70CE6
:10006000A60C031C39282208A00723080318230F15
:10007000A107A10CA00CA50CA40CA80B2F282408E8
:10008000412883130313831264000800831686013A
:10009000880187018312E030B8003830B9001C3085
:1000A000BA000E30BB000730BC008330BD00C13049
:1000B000BE00E030BF000130C200C3016400083060
:1000C00043028A110A12031886284209860043084F
:1000D000383E8400000888004308A600A7011030BD
:1000E000A200A3018A012B20C0002508C1004008FE
:1000F000430787000330A300E8308A010220031081
:10010000C20DC30A8A110A12031D5E288A015B28E8
:02400E00753FFC
:00000001FF
