:020000040000FA
:100000003028A301A200FF30A207031CA307031C92
:100010002B280330A100DF300F200328A101E83E88
:10002000A000A109FC30031C1828A00703181528FC
:10003000A0076400A10F152820181E28A01C222844
:100040000000222808000310A00DA10DFF3E031898
:10005000232820082B28831303138312640008002D
:100060008316860187018312B8016630B900993082
:10007000BA006630BB00BC018130BD004230BE001A
:100080003C30BF000130C200C301640008304302AD
:100090008A110A1203186428420986004308073CA3
:1000A000C0000030031CFF3EC1004008383E840001
:1000B0000008870005308A0101200310C20DC30A21
:0C00C0008A110A12031D45288A014228FB
:02400E00753FFC
:00000001FF
