:020000040000FA
:10000000B201AC28A501A400B3172730A30010301B
:1000100015200330A300E8301520A301643015201B
:10002000A3010A30152024082028A2002508A100D9
:100030002408A0008B202008031DB313B31B080065
:10004000303EA70009110910091083160911091083
:100050000910880183122708B21849283A30A100F4
:10006000FC3073203330A6005C201030A1006830D3
:1000700073205C20643072205C20383048200C30C3
:1000800048200130482006304820B214270849286B
:100090003214A600321C57280910033C031C5C28AC
:1000A0005C200730A100D030732003140800321404
:1000B000FE3C0319A72809140915260888003210E8
:1000C00009113230722003140800A301A200FF308E
:1000D000A207031CA307031CA7280330A100DF30DD
:1000E00073206728A101E83EA000A109FC30031C91
:1000F0007C28A00703187928A0076400A10F79289D
:1001000020188228A01C86280000862808000404E5
:10011000031DFF30A728A501A4011030A600210D62
:10012000A40DA50D2208A4022308031C230FA50279
:100130000318A1282208A40723080318230FA507E2
:100140000310A00DA10DA60B8F282008A72883134C
:100150000313831264000800831670308600880140
:10016000870107309F00643083128A016520860171
:1001700087010130B8000230B9000330BA002A30DC
:10018000BB000530BC002330BD000230C300C201FB
:100190002430C5000130C400FE308A012120013026
:1001A0008A01212006140F308A01652064008A111B
:1001B0000A12061EDD280130C50064008A110A12E9
:1001C000861EE4280230C50064008A110A12061F48
:1001D000EB280330C5008A110A1247210610861445
:1001E0000F308A01652064008A110A12061EFA285F
:1001F0000430C50064008A110A12861E01290530E8
:10020000C50064008A110A12061F08290630C500BD
:100210008A110A124721861006150F308A016520BF
:1002200064008A110A12061E17290730C5006400EF
:100230008A110A12861E1E290830C50064008A1120
:100240000A12061F25290930C5008A110A12472102
:10025000061186150F308A01652064008A110A1282
:10026000061E34292A30C50064008A110A12861E2F
:100270003A29C50164008A110A12061F4129233058
:10028000C5008A110A12472186118A01D22864000A
:100290004508243C8A110A120319812945082A3C81
:1002A000031DFF30FF3ABE004508233C031DFF300D
:1002B000FF3AC0003E08840040088A018720C00041
:1002C000C1006400400841048A110A1203196E2912
:1002D00045088A0121208A110A12712945088A01DC
:1002E00002204208383E84000008BE006400450831
:1002F0003E028A110A1203197E29C401C20A24305F
:10030000C50064004208063C8A110A12031D542AE3
:1003100064004408013C8A110A12031DC929FE30F9
:100320008A01212001308A01212067308A012120A1
:1003300069308A01212072308A01212069308A01C6
:10034000212073308A01212020308A01212062304F
:100350008A01212061308A01212073308A01212005
:1003600061308A01212072308A01212069308A019E
:1003700021206C308A01212069308A01212002303D
:100380008700BF30A30020308A0166208A110A123C
:10039000542A6400013043028A110A12031C142AF1
:1003A000C30301308700FE308A01212001308A0119
:1003B000212001304307BE00BF01BF0D3F08A5004B
:1003C0003E088A01032064308A01212065308A01B9
:1003D00021206E308A01212065308A0121206D3074
:1003E0008A01212065308A0121206E308A01212076
:1003F00020308A0121206B308A01212061308A015E
:1004000021206C308A01212064308A01212069304A
:100410008A0121200130A300F4308A0166208A017C
:10042000C7288A110A12542AFE308A01212001307D
:100430008A01212033308A01212020308A012120A5
:1004400064308A0121206B308A01212020308A010A
:10045000212067308A01212069308A0121207230F1
:100460008A01212065308A0121206D308A012120F6
:1004700065308A0121207A308A01212073308A0177
:10048000212069308A0121206E308A0121206930C3
:100490008A0121207A308A0121200330C3008A1189
:1004A0000A1255228A01C7280800BF30A300203055
:0604B0008A01662008002D
:02400E00753FFC
:00000001FF
