:020000040000FA
:10000000B201CF28A400B3172730A300103014206A
:100010000330A300E8301420A30164301420A301AE
:100020000A30142024081F28A2002508A100240853
:10003000A000AE202008031DB313B31B0800303E00
:10004000A7000911091009108316091109100910D8
:10005000880183122708B21848283A30A100FC30E2
:1000600072203330A6005B201030A100683072206F
:100070005B20643071205B20383047200C304720F3
:100080000130472006304720B21427084828321490
:10009000A600321C56280910033C031C5B285B2079
:1000A0000730A100D0307220031408003214FE3C47
:1000B0000319CA28091409152608880032100911E5
:1000C0003230712003140800A301A200FF30A20700
:1000D000031CA307031CCA280330A100DF307220D1
:1000E0006628A101E83EA000A109FC30031C7B2882
:1000F000A00703187828A0076400A10F782820180B
:100100008128A01C85280000852808000310A00D68
:10011000A10DFF3E031886282008CA280310A10C51
:10012000A00CFF3E03188E282008CA28A200033026
:100130009E28A20004309E28A2000530A8002308B3
:100140002102031DA52822082002043003180130D3
:10015000031902302805031DFF30CA28A501A40198
:100160001030A600210DA40DA50D2208A40223081D
:10017000031C230FA5020318C4282208A407230880
:100180000318230FA5070310A00DA10DA60BB2287D
:100190002008CA28831303138312640008008316FF
:1001A00086010330870083120330860083160730F0
:1001B0009F00643083128A016420C401C5010330AA
:1001C000B8000630B9000E30BA000930BB00BE01DD
:1001D000BF01BC01BD01C001C101C401C501640072
:1001E0008A110A12071CEA29C6016400043046027B
:1001F0008A110A120318E8293C08A0003D08A10052
:100200000130A30068308A0196208A110A12031D6A
:100210000D295A30BC070318BD0A6830A000013010
:10022000A1003D08A3003C088A019C208A110A1203
:10023000031D2229BE0A0319BF0ABC01BD01C40A5D
:100240000319C50AFE308A01202001308A012020CE
:1002500069308A0120206C308A01202065308A01B3
:10026000202072308A01202069308A0120203A3013
:100270008A01202020308A0120204508A50044085A
:100280008A01022020308A01202074308A01202037
:1002900075308A01202072308A0120203E08A0009B
:1002A0003F08A1004108A30040088A0199208A1153
:1002B0000A12031D9B29FE308A012020C0308A01CA
:1002C000202074308A0120206F308A012020703075
:1002D0008A0120206C308A01202061308A01202090
:1002E0006D308A01202064308A01202061308A012B
:1002F00020203A308A01202020308A012020400826
:100300003E02C2004108031C013E3F02C3004308F5
:10031000A50042088A01022020308A012020743082
:100320008A01202075308A01202072308A01202025
:100330008A110A12DB29FE308A012020C0308A018E
:10034000202074308A0120206F308A0120207030F4
:100350008A0120206C308A01202061308A0120200F
:100360006D308A01202064308A01202061308A01AA
:1003700020203A308A01202020308A0120202D3090
:100380008A0120203E084002C2003F08031C013EB3
:100390004102C3004308A50042088A010220203020
:1003A0008A01202074308A01202075308A012020A3
:1003B00072308A0120204608383E840000088600FA
:1003C00032308A016420C60A8A110A12031DF528F8
:1003D0008A01EF2864008A110A12871C232BC601A8
:1003E0006400043046028A110A120318212B3C08CB
:1003F000A0003D08A1000130A30068308A019620CA
:100400008A110A12031D082A5A30BC070318BD0AB4
:100410006830A0000130A1003D08A3003C088A011B
:100420009C208A110A12031D1D2AC00A0319C10A41
:10043000BC01BD01C40A0319C50AA001A1014508F8
:10044000A30044088A019C208A110A12031D542A21
:10045000FE308A01202001308A01202067308A0185
:10046000202065308A01202072308A0120206930E6
:100470008A0120203A308A01202020308A01202061
:100480004508A50044088A01022020308A01202066
:1004900074308A01202075308A01202072308A0150
:1004A00020208A110A12802AFE308A012020013081
:1004B0008A01202067308A01202065308A012020AF
:1004C00072308A01202069308A0120203A308A0166
:1004D000202020308A0120202D308A01202045084C
:1004E000A50044088A01022020308A0120207430AF
:1004F0008A01202075308A01202072308A01202054
:100500003E08A0003F08A1004108A30040088A015E
:1005100099208A110A12031DCD2AFE308A0120205B
:10052000C0308A01202074308A0120206F308A0177
:10053000202070308A0120206C308A012020613018
:100540008A0120206D308A01202064308A01202019
:1005500061308A0120203A308A01202020308A012F
:10056000202040083E02C2004108031C013E3F0219
:10057000C3004308A50042088A01022020308A01F6
:10058000202074308A01202075308A0120207230AA
:100590008A0120208A110A120D2BFE308A012020A8
:1005A000C0308A01202074308A0120206F308A01F7
:1005B000202070308A0120206C308A012020613098
:1005C0008A0120206D308A01202064308A01202099
:1005D00061308A0120203A308A01202020308A01AF
:1005E00020202D308A0120203E084002C2003F0812
:1005F000031C013E4102C3004308A50042088A01D2
:10060000022020308A01202074308A012020753099
:100610008A01202072308A0120204608033CC20053
:100620000030031CFF3EC3004208383E840000082F
:10063000860032308A016420C60A8A110A12031D1C
:10064000F0298A01EA298A01ED2864008A110A1238
:10065000871C2D2B8A110A12422B32308A0164200A
:100660000310860D64000608183C8A110A12031D47
:10067000402B0930860032308A0164200330860026
:100680008A01252B64008A110A12071C492B8A0152
:10069000252B32308A0164200310860C6400060882
:1006A000013C8A110A12031D572B09308600640091
:1006B0000608043C8A110A12031D632B0C308600C5
:0A06C00032308A0164208A01422BC7
:02400E00753FFC
:00000001FF
