:020000040000FA
:100000002828A301A200FF30A207031CA307031C9A
:1000100023280330A100DF300F200328A101E83E90
:10002000A000A109FC30031C1828A00703181528FC
:10003000A0076400A10F152820181E28A01C222844
:1000400000002228080083130313831264000800B1
:10005000831686010330870007309F0064308312C7
:100060008A010120013086000130B8000330B90058
:100070000230BA000630BB000430BC000C30BD00BA
:100080000830BE000930BF00C201640008304202DF
:100090008A110A12031859284208383E84000008C1
:1000A000860032308A010120C20A8A110A12031D19
:0600B00045288A014428E6
:02400E00753FFC
:00000001FF
