:020000040000FA
:10000000B201BF289818181218162C08A0002D0845
:10001000A100A201A3010C280D2864008C1A23283A
:10002000FF30A207031CA307031CA007031CA107A2
:10003000031C0800220F0B28230F0C283230A200CB
:100040000030A3000D281A080314BA2864000C1EFF
:10005000262899000314BA28A700091109100910CD
:100060008316091109100910880183122708B21894
:1000700054283A30A100FC307E203330A60067209F
:100080001030A10068307E20672064307D2067201A
:10009000383053200C305320013053200630532089
:1000A000B214270854283214A600321C6228091002
:1000B000033C031C672867200730A100D0307E2056
:1000C000031408003214FE3C0319BA280914091558
:1000D000260888003210091132307D2003140800F0
:1000E000A301A200FF30A207031CA307031CBA2828
:1000F0000330A100DF307E207228A101E83EA0007D
:10010000A109FC30031C8728A00703188428A00736
:100110006400A10F842820188D28A01C91280000BD
:1001200091280800A2000530A80023082102031D21
:100130009B282208200204300318013003190230E2
:100140002805031DFF30BA281030A800A101A00126
:10015000A70CA60C031CB2282208A007230803182A
:10016000230FA107A10CA00CA50CA40CA80BA82878
:100170002408BA288313031383126400080083162B
:10018000193099002430980083129030980083161B
:100190008601880107309F00643083128A01702035
:1001A000C80186010330B8000630B9000E30BA002D
:1001B0000930BB007730A000A1014108A30040082E
:1001C0008A0192208A110A12031D1829C8016400AD
:1001D000043048028A110A12031815294808383ECB
:1001E00084000008C4004808033CC6000030031C1B
:1001F000FF3EC7004608383E84000008C600460897
:10020000A600A7011030A200A3018A01A420C60005
:100210002508C70046084407860032308A0170204E
:10022000C80A8A110A12031DE7288A110A12CF2967
:100230006130A000A1014108A30040088A0192207A
:100240008A110A12031D5D29C801640004304802A6
:100250008A110A1203185A294808033CC4000030C6
:10026000031CFF3EC5004408383E84000008C4005B
:100270004808033CC6000030031CFF3EC700460888
:10028000383E84000008C6004608A600A7011030CA
:10029000A200A3018A01A420C6002508C7004608C1
:1002A0004407860032308A017020C80A8A110A1277
:1002B000031D25298A110A12CF296430A000A1014B
:1002C0004108A30040088A0192208A110A12031DE6
:1002D0009429C8016400043048028A110A120318E4
:1002E00091294808383E84000008C4004808383E78
:1002F00084000008C6004608A600A7011030A2002E
:10030000A3018A01A420C6002508C70046084407A7
:10031000860032308A017020C80A8A110A12031D31
:100320006A298A110A12CF297330A000A10141085D
:10033000A30040088A0192208A110A12031DCF29C6
:10034000C8016400043048028A110A120318CF2938
:100350004808033CC4000030031CFF3EC5004408AD
:10036000383E84000008C4004808383E8400000875
:10037000C6004608A600A7011030A200A3018A010A
:10038000A420C6002508C70046084407860032306E
:100390008A017020C80A8A110A12031DA1298A1134
:1003A0000A12D7218A110A12E8228A01DA28323089
:1003B000AC00AD018A0102208A110A12031CE22955
:1003C000C000C101FE308A012C2001308A012C209E
:1003D00064308A012C2075308A012C2072308A0109
:1003E0002C2075308A012C2079308A012C206F3026
:1003F0008A012C2072308A012C207730A000A101C4
:100400004108A30040088A0192208A110A12031DA4
:10041000392AFE308A012C2001308A012C206930D3
:100420008A012C206C308A012C2065308A012C2016
:1004300072308A012C2069308A012C2020308A01F8
:100440002C2067308A012C2069308A012C206430EE
:100450008A012C2069308A012C2079308A012C20D5
:100460006F308A012C2072308A012C2032308A01B0
:1004700070206130A000A1014108A30040088A015A
:1004800092208A110A12031D722AFE308A012C2042
:1004900001308A012C2073308A012C206F308A01B0
:1004A0002C206C308A012C2061308A012C202030D5
:1004B0008A012C2067308A012C2069308A012C2087
:1004C00064308A012C2069308A012C2079308A011D
:1004D0002C206F308A012C2072308A012C2032307F
:1004E0008A0170206430A000A1014108A3004008E7
:1004F0008A0192208A110A12031DAB2AFE308A015A
:100500002C2001308A012C2073308A012C2061308C
:100510008A012C2067308A012C2061308A012C202E
:1005200020308A012C2067308A012C2069308A0112
:100530002C2064308A012C2069308A012C207930EB
:100540008A012C206F308A012C2072308A012C20E5
:1005500032308A0170207330A000A1014108A3004D
:1005600040088A0192208A110A12031DE42AFE30F3
:100570008A012C2001308A012C2067308A012C202E
:1005800065308A012C2072308A012C2069308A0162
:100590002C2020308A012C2067308A012C206930E1
:1005A0008A012C2064308A012C2069308A012C2099
:1005B00079308A012C206F308A012C2072308A0118
:1005C0002C2032308A017020C8308A017020080047
:1005D000C80A7730A000A1014108A30040088A01A1
:1005E00092208A110A12031D222B69308A012620CB
:1005F0006C308A01262065308A01262072308A01FB
:10060000262069308A01262020308A012620673082
:100610008A01262069308A01262064308A0126203A
:1006200069308A01262079308A0126206F308A01BC
:10063000262072308A0126200D308A0126200A30B9
:100640008A0126206130A000A1014108A3004008D2
:100650008A0192208A110A12031D582B73308A01D5
:1006600026206F308A0126206C308A0126206130D6
:100670008A01262020308A01262067308A01262020
:1006800069308A01262064308A01262069308A0177
:10069000262079308A0126206F308A012620723088
:1006A0008A0126200D308A0126200A308A01262060
:1006B0006430A000A1014108A30040088A019220F3
:1006C0008A110A12031D8E2B73308A012620613095
:1006D0008A01262067308A01262061308A0126207F
:1006E00020308A01262067308A01262069308A015D
:1006F000262064308A01262069308A01262079303C
:100700008A0126206F308A01262072308A01262035
:100710000D308A0126200A308A0126207330A0007D
:10072000A1014108A30040088A0192208A110A12FF
:10073000031DC42B67308A01262065308A012620DC
:1007400072308A01262069308A01262020308A01F1
:10075000262067308A01262069308A0126206430ED
:100760008A01262069308A01262079308A012620D4
:100770006F308A01262072308A0126200D308A01CE
:0A07800026200A308A012620080016
:02400E00753FFC
:00000001FF
