:020000040000FA
:100000005528013EA7000A30A200A3011E20A70B1D
:10001000062824080800A20003300E28A8002308A0
:100020002102031D15282208200204300318013084
:10003000031902302805031DFF305028A501A40133
:100040001030A600210DA40DA50D2208A40223083E
:10005000031C230FA502031834282208A407230831
:100060000318230FA5070310A00DA10DA60B22282E
:10007000200850281030A800A101A001A70CA60C50
:10008000031C48282208A00723080318230FA107F0
:10009000A10CA00CA50CA40CA80B3E2824085028E9
:1000A00083130313831264000800831686018701FB
:1000B000880107309F008312BC01BD013C08860007
:1000C0003D0887003C083D07880064008A110A1239
:1000D00009187F2864003C08093C8A110A12031998
:1000E0007528BC0A8A110A127628BC0164008A119C
:1000F0000A1209187F283C0886008A0176286400C5
:100100008A110A128918992864003D08093C8A114D
:100110000A1203198F28BD0A8A110A129028BD01FC
:1001200064008A110A12891899283D0887008A01FB
:10013000902864008A110A120919D4283C083D0746
:10014000B800B901B90D3808A0003908A100A30111
:100150000A308A010B208A110A12031DB4283808BC
:1001600088008A110A12D4283808A0003908A10092
:1001700001308A010120B800B9013808A600390809
:10018000A7001030A200A3018A013A20BA00250876
:10019000BB003C08BA070318BB0A3D08BA0703189E
:0C01A000BB0A0A303A0288008A01652878
:02400E00753FFC
:00000001FF
