:020000040000FA
:100000006A28A301A200FF30A207031CA307031C58
:1000100065280330A100DF300F200328A101E83E4E
:10002000A000A109FC30031C1828A00703181528FC
:10003000A0076400A10F152820181E28A01C222844
:100040000000222808000310A00DA10DFF3E031898
:100050002328200865280310A10CA00CFF3E0318DC
:100060002B2820086528A501A4011030A600210D29
:10007000A40DA50D2208A4022308031C230FA5022A
:10008000031849282208A40723080318230FA507EB
:100090000310A00DA10DA60B3728200865281030ED
:1000A000A800A101A001A70CA60C031C5D28220832
:1000B000A00723080318230FA107A10CA00CA50C6F
:1000C000A40CA80B53282408652883130313831258
:1000D00064000800831686018312013086003230E6
:1000E0008A0101200310860D32308A01012064004C
:1000F0000608803C8A110A12031D81288A110A12FF
:1001000083288A0172280310860C32308A0101206C
:1001100064000608013C8A110A12031D91288A0115
:1001200072288A0183280608A600A7010230A200CF
:10013000A3018A014F20860032308A010120640029
:100140000608803C8A110A12031DA9288A110A1286
:10015000AB288A0193280310860C32308A010120D3
:1001600064000608013C8A110A12031DB9288A019D
:0601700093288A01AB2870
:02400E00753FFC
:00000001FF
