:020000040000FA
:100000003828A301A200FF30A207031CA307031C8A
:1000100033280330A100DF300F200328A101E83E80
:10002000A000A109FC30031C1828A00703181528FC
:10003000A0076400A10F152820181E28A01C222844
:100040000000222808000310A00DA10DFF3E031898
:100050002328200833280310A10CA00CFF3E03180E
:100060002B2820083328831303138312640008000D
:10007000831686018312FE30860032308A01012009
:100080000130BA000310BA0D3A09860032308A01F5
:10009000012064003A08803C8A110A12031D53288B
:1000A0008A110A1255288A0142280310BA0C3A090B
:1000B000860032308A01012064003A08013C8A112E
:0E00C0000A12031D65288A0142288A0155286C
:02400E00753FFC
:00000001FF
