:020000040000FA
:100000002828A301A200FF30A207031CA307031C9A
:1000100023280330A100DF300F200328A101E83E90
:10002000A000A109FC30031C1828A00703181528FC
:10003000A0076400A10F152820181E28A01C222844
:1000400000002228080083130313831264000800B1
:1000500083168601831286013F30B8000630B9004E
:100060005B30BA004F30BB006630BC006D30BD0065
:100070007D30BE000730BF007F30C0006F30C10050
:10008000C40164000A3044028A110A120318572876
:100090004408383E8400000886000130A300F43094
:1000A0008A010220C40A8A110A12031D41288A010A
:1000B000402864000A3044028A110A1203186D288D
:1000C0004408383E8400000886000130A300F43064
:1000D0008A010220C40A8A015928C4018A015928C8
:1000E0004408383E8400000886000130A300F43044
:1000F0008A010220C40A64000A3044028A110A12EA
:0A010000031C8328C4018A01702843
:02400E00753FFC
:00000001FF
