:020000040000FA
:100000002828A301A200FF30A207031CA307031C9A
:1000100023280330A100DF300F200328A101E83E90
:10002000A000A109FC30031C1828A00703181528FC
:10003000A0076400A10F152820181E28A01C222844
:1000400000002228080083130313831264000800B1
:10005000831686018312B80164000A3038028A11BF
:100060000A1203183F28380886000130A300F43034
:100070008A010220B80A8A110A12031D2C288A015B
:020080002B282B
:02400E00753FFC
:00000001FF
