:020000040000FA
:100000007828210820040319A00A8030201AA106AC
:100010002019A106A018A106210DA00DA10D73287D
:10002000A301A200FF30A207031CA307031C73282F
:100030000330A100DF301E201228A101E83EA000FD
:10004000A109FC30031C2728A00703182428A007B7
:100050006400A10F242820182D28A01C312800009E
:1000600031280800A101A301A20001303C28A10110
:10007000A301A20004303C28A80023082102031D8C
:1000800043282208200204300318013003190230EB
:100090002805031DFF3073280038031DFF300405B9
:1000A000031DFF3073280404031DFF307328A501CE
:1000B000A4011030A600210DA40DA50D2208A40254
:1000C0002308031C230FA50203186D282208A40788
:1000D00023080318230FA5070310A00DA10DA60BDD
:1000E0005B2820087328831303138312640008001D
:1000F0008316860188010514851407309F0083123A
:100100000130E2000230E3000430E4000830E50092
:100110001030E6002030E7004030E8008030E90091
:10012000880186010E30F3000A30F8008A110A12A5
:10013000E1210130F900FA011230F200F40164000B
:10014000153074028A110A120318B3287408383E55
:100150008400800174084D3E84008001F40A8A11F5
:100160000A12031D9F280230CC000430E100013048
:10017000CB000430E000CA010430DF00F501F401D7
:100180008A110A12B421F7016400770873028A11F8
:100190000A12031CD3288A110A127D21F70A8A1138
:1001A0000A12031DC4287208F60064001430760297
:1001B0008A110A120318FF2801307607EA00EB01C2
:1001C000EB0D6A08383E84000008EA007608383EE5
:1001D00084006A08800001307607EA00EB01EB0D2D
:1001E0006A084D3E84000008EA0076084D3E84000F
:1001F0006A088000F60A8A110A12031DD5287908B8
:10020000CC077A08E1077B084C02031DFF30FF3A58
:10021000EA007C086102031DFF30FF3AEC006A0827
:1002200084006C088A014C20EC00ED0064006C082E
:100230006D048A110A1203192329F203F30AF80341
:100240008A110A12E1214C08A00007308A013220ED
:10025000EA00EC016A0884006C088A015320EC0073
:10026000ED006108A00007308A013220EE006C0822
:100270006D0484006E088A015320EE00EF00F00147
:100280006E086F04840070088A015320F000F100AA
:100290006400700871048A110A120319562979083A
:1002A000CC027A08E1028A110A1258298A01BE2872
:1002B000F4016400033074028A110A1203187B29C6
:1002C0008801FF30860096308A011020F701640013
:1002D000093077028A110A12031876298A110A1244
:1002E0007D21F70A8A110A12031D6729F40A8A116F
:1002F0000A12031D59298A0192287B08623E840054
:10030000000888007C08623E84000008EA006A0950
:10031000860078088A0110207208F6006400153003
:1003200076028A110A120318B32976084D3E84001A
:100330000008EA006A08623E84000008EA006A09D0
:1003400086007608383E84000008EA006A08623EAB
:1003500084000008880078088A011020F60A8A11B3
:100360000A12031D8E29080064008A110A12851CD6
:10037000CA2964007908003C8A110A12031DC629A3
:100380007A08F900FA018A110A12CA297909013E8C
:10039000FA00F90164008A110A12051CE0296400C0
:1003A0007908003C8A110A12031DDD297A09013EF1
:1003B000F900FA018A110A12E0297908FA00F90114
:1003C00008007B08A000A1018A0101202008FB0091
:1003D0007B08A000A1010830A200A3018A015720D8
:1003E0002408FB007C08A000A1018A01012020084C
:1003F000FC007C08A000A1010830A200A3018A0132
:1004000057202408FC00F6016400153076028A119A
:100410000A120318362A7608383E84000008EA00DB
:100420007B086A02031DFF30FF3AEA0076084D3E62
:1004300084000008EC007C086C02031DFF30FF3ACA
:10044000EC006A0884006C088A014C20EC00ED0086
:1004500064006C086D048A110A120319312A8A019A
:0E046000E129F60A8A110A12031D042A080077
:02400E00753FFC
:00000001FF
