:020000040000FA
:10000000B2019A2898181812181664008C1E052838
:100010001A080314952864000C1E0B289900031479
:100020009528A70009110910091083160911091054
:100030000910880183122708B21839283A30A10024
:10004000FC3063203330A6004C201030A100683013
:1000500063204C20643062204C20383038200C3033
:1000600038200130382006303820B21427083928CB
:100070003214A600321C47280910033C031C4C28EC
:100080004C200730A100D030632003140800321444
:10009000FE3C03199528091409152608880032101A
:1000A00009113230622003140800A301A200FF30BE
:1000B000A207031CA307031C95280330A100DF300F
:1000C00063205728A101E83EA000A109FC30031CD1
:1000D0006C28A00703186928A0076400A10F6928ED
:1000E00020187228A01C7628000076280800A2009C
:1000F00002307C28A2000530A80023082102031D3D
:10010000832822082002043003180130031902302A
:100110002805031DFF3095280404031DFF30952892
:100120000038031DFF30FF3A952883130313831211
:100130006400080083161930990024309800831257
:10014000903098008316880107309F006430831236
:100150008A015520FE308A01112040308A01112089
:100160001F308A01112011308A01112011308A01BB
:10017000112011308A01112011308A011120113013
:100180008A0111201F308A011120FE308A011120BE
:1001900048308A01112011308A0111200A308A0169
:1001A000112004308A0111200A308A0111200A30FE
:1001B0008A01112011308A01112011308A01112089
:1001C000FE308A01112050308A01112000308A014E
:1001D00011200E308A0111201F308A0111201F309A
:1001E0008A0111201F308A0111200E308A0111204E
:1001F00000308A011120B801B901BA01BB018A118E
:100200000A12AD263A08A0003B08A100A301003065
:100210008A0177208A110A12031DA82EFE308A0156
:10022000112001308A0111206B30A000A101390892
:10023000A30038088A017A208A110A12031DF12AC4
:100240006B30A000A1013B08A3003A088A017A2084
:100250008A110A12031D6B2962308A010B20653056
:100260008A010B2072308A010B2061308A010B2039
:1002700062308A010B2065308A010B2072308A01BE
:100280000B2065308A010B2020308A010B200D30B5
:100290008A010B200A308A010B2062308A0111206A
:1002A00065308A01112072308A01112061308A0183
:1002B000112062308A01112065308A0111207230CC
:1002C0008A01112065308A0111208A150A12E8205E
:1002D0008A110A12EE2A6D30A000A1013B08A3008A
:1002E0003A088A017A208A110A12031D312A323013
:1002F0008A010B202E308A010B2020308A010B202E
:100300006F308A010B2079308A010B2075308A0109
:100310000B206E308A010B2063308A010B20753070
:100320008A010B2020308A010B206B308A010B20C0
:1003300061308A010B207A308A010B2061308A01FA
:100340000B206E308A010B2064308A010B2069304B
:100350008A010B2020308A010B200D308A010B20EE
:100360000A308A010B2000308A01112001308A01F5
:10037000112020308A01112032308A0111202E30C4
:100380008A01112020308A0111206F308A0111204A
:1003900079308A01112075308A0111206E308A016E
:1003A000112063308A01112075308A01112020301C
:1003B0008A0111206B308A01112061308A011120DD
:1003C0007A308A01112061308A0111206E308A0151
:1003D000112064308A01112069308A011120FE3019
:1003E0008A011120C0308A0111206D308A0111204C
:1003F00061308A0111206B308A01112061308A013D
:10040000112073308A01112020308A0111206B30B5
:100410008A01112061308A01112067308A01112080
:1004200069308A01112064308A01112069308A0103
:10043000112020308A0111206B308A011120653093
:100440008A01112073308A01112065308A01112040
:1004500072308A0111208A150A12E8208A110A12C4
:10046000EE2A7430A000A1013B08A3003A088A01DB
:100470007A208A110A12031DEE2A31308A010B20DC
:100480002E308A010B2020308A010B206F308A0128
:100490000B2079308A010B2075308A010B206E30D9
:1004A0008A010B2063308A010B2075308A010B20F2
:1004B00020308A010B206B308A010B2061308A01C9
:1004C0000B207A308A010B2061308A010B206E30BC
:1004D0008A010B2064308A010B2069308A010B20CD
:1004E00020308A010B200D308A010B200A308A014E
:1004F0000B2000308A01112002308A0111202030A7
:100500008A01112031308A0111202E308A011120F8
:1005100020308A0111206F308A01112079308A0140
:10052000112075308A0111206E308A01112063304C
:100530008A01112075308A01112020308A01112092
:100540006B308A01112061308A0111207A308A01D2
:10055000112061308A0111206E308A01112064302F
:100560008A01112069308A011120FE308A01112090
:10057000C0308A0111206B308A01112061308A015C
:10058000112067308A01112069308A0111206430FE
:100590008A01112020308A01112074308A01112033
:1005A00061308A01112073308A01112069308A017B
:1005B000112020308A01112073308A01112061300E
:1005C0008A01112072308A01112061308A011120C4
:1005D00072308A0111208A150A12E8208A110A1243
:1005E000A82E6D30A000A1013908A30038088A01A7
:1005F0007A208A110A12031DD42C6B30A000A101AD
:100600003B08A3003A088A017A208A110A12031DC6
:10061000C92B31308A010B202E308A010B2020306B
:100620008A010B206F308A010B2079308A010B2060
:1006300075308A010B206E308A010B2063308A01ED
:100640000B2075308A010B2020308A010B206B3083
:100650008A010B2061308A010B207A308A010B203D
:1006600061308A010B206E308A010B2064308A01D0
:100670000B2069308A010B2020308A010B200D30BD
:100680008A010B200A308A010B20FE308A011120DA
:1006900001308A01112001308A01112000308A01C5
:1006A000112020308A01112031308A0111202E3092
:1006B0008A01112020308A0111206F308A01112017
:1006C00079308A01112075308A0111206E308A013B
:1006D000112063308A01112075308A0111202030E9
:1006E0008A0111206B308A01112061308A011120AA
:1006F0007A308A01112061308A0111206E308A011E
:10070000112064308A01112069308A011120FE30E5
:100710008A011120C0308A0111206D308A01112018
:1007200061308A0111206B308A01112061308A0109
:10073000112073308A01112020308A0111206B3082
:100740008A01112061308A01112067308A0111204D
:1007500069308A01112064308A01112069308A01D0
:10076000112020308A0111206B308A011120653060
:100770008A01112073308A01112065308A0111200D
:1007800072308A0111208A150A12E8208A110A1291
:10079000D12C6D30A000A1013B08A3003A088A01CA
:1007A0007A208A110A12031D142C62308A010B2050
:1007B00065308A010B2072308A010B2061308A017A
:1007C0000B2062308A010B2065308A010B207230C9
:1007D0008A010B2065308A010B2020308A010B2012
:1007E0000D308A010B200A308A010B2062308A0109
:1007F000112065308A01112072308A011120613088
:100800008A01112062308A01112065308A0111208D
:1008100072308A01112065308A0111208A150A126E
:10082000E8208A110A12D12C7430A000A1013B08E3
:10083000A3003A088A017A208A110A12031DD12CDA
:1008400032308A010B202E308A010B2020308A01A1
:100850000B206F308A010B2079308A010B20753014
:100860008A010B206E308A010B2063308A010B2035
:1008700075308A010B2020308A010B206B308A01F1
:100880000B2061308A010B207A308A010B20613005
:100890008A010B206E308A010B2064308A010B2004
:1008A00069308A010B2020308A010B200D308A012B
:1008B0000B200A308A010B2001308A0111200230FE
:1008C0008A01112020308A01112032308A01112042
:1008D0002E308A01112020308A0111206F308A01C8
:1008E000112079308A01112075308A0111206E3073
:1008F0008A01112063308A01112075308A0111208C
:1009000020308A0111206B308A01112061308A0168
:1009100011207A308A01112061308A0111206E3055
:100920008A01112064308A01112069308A01112066
:10093000FE308A011120C0308A01112074308A01F2
:10094000112061308A01112073308A01112020307A
:100950008A0111206D308A01112061308A01112035
:100960006B308A01112061308A01112073308A01B5
:10097000112069308A01112020308A0111206B304A
:100980008A01112069308A01112072308A011120F8
:1009900061308A01112072308A0111208A150A12F1
:1009A000E8208A110A12A82E7430A000A10139088B
:1009B000A30038088A017A208A110A12031DA82E82
:1009C0006B30A000A1013B08A3003A088A017A20FD
:1009D0008A110A12031DA02D32308A010B202E30FD
:1009E0008A010B2020308A010B206F308A010B20F6
:1009F00079308A010B2075308A010B206E308A0114
:100A00000B2063308A010B2075308A010B202030C7
:100A10008A010B206B308A010B2061308A010B2088
:100A20007A308A010B2061308A010B206E308A01F6
:100A30000B2064308A010B2069308A010B202030A2
:100A40008A010B200D308A010B200A308A010B200D
:100A500002308A01112000308A01112020308A01E1
:100A6000112032308A0111202E308A0111202030CD
:100A70008A0111206F308A01112079308A011120FA
:100A800075308A0111206E308A01112063308A018D
:100A9000112075308A01112020308A0111206B301D
:100AA0008A01112061308A0111207A308A011120D7
:100AB00061308A0111206E308A01112064308A0170
:100AC000112069308A011120FE308A011120C030C6
:100AD0008A0111206B308A01112061308A011120B6
:100AE00067308A01112069308A01112064308A013F
:100AF000112020308A01112074308A0111206130C8
:100B00008A01112073308A01112069308A01112075
:100B100020308A01112073308A01112061308A014E
:100B2000112072308A01112061308A011120723047
:100B30008A0111208A150A12E8208A110A12A82EA9
:100B40006D30A000A1013B08A3003A088A017A2079
:100B50008A110A12031D602E31308A010B202E30BB
:100B60008A010B2020308A010B206F308A010B2074
:100B700079308A010B2075308A010B206E308A0192
:100B80000B2063308A010B2075308A010B20203046
:100B90008A010B206B308A010B2061308A010B2007
:100BA0007A308A010B2061308A010B206E308A0175
:100BB0000B2064308A010B2069308A010B20203021
:100BC0008A010B200D308A010B200A308A010B208C
:100BD00002308A01112001308A01112020308A015F
:100BE000112031308A0111202E308A01112020304D
:100BF0008A0111206F308A01112079308A01112079
:100C000075308A0111206E308A01112063308A010B
:100C1000112075308A01112020308A0111206B309B
:100C20008A01112061308A0111207A308A01112055
:100C300061308A0111206E308A01112064308A01EE
:100C4000112069308A011120FE308A011120C03044
:100C50008A01112074308A01112061308A0111202B
:100C600073308A01112020308A0111206D308A01F1
:100C7000112061308A0111206B308A01112061300E
:100C80008A01112073308A01112069308A011120F4
:100C900020308A0111206B308A01112069308A01CD
:100CA000112072308A01112061308A0111207230C6
:100CB0008A0111208A150A12E8208A110A12A82E28
:100CC0007430A000A1013B08A3003A088A017A20F1
:100CD0008A110A12031DA82E62308A010B2065308A
:100CE0008A010B2072308A010B2061308A010B20AF
:100CF00062308A010B2065308A010B2072308A0134
:100D00000B2065308A010B2020308A010B200D302A
:100D10008A010B200A308A010B2062308A011120DF
:100D200065308A01112072308A01112061308A01F8
:100D3000112062308A01112065308A011120723041
:100D40008A01112065308A0111208A150A12E820D3
:100D5000C8308A0155208A01FF2854308A010B20AF
:100D600041308A010B2053308A010B203D308A012B
:100D70000B2074308A010B2020308A010B204D306B
:100D80008A010B2041308A010B204B308A010B2055
:100D900041308A010B2053308A010B203D308A01FB
:100DA0000B206D308A010B2020308A010B204B3044
:100DB0008A010B2041308A010B2047308A010B2029
:100DC00049308A010B2054308A010B203D308A01C2
:100DD0000B206B308A010B2020308A010B200D3054
:100DE0008A010B200A308A010B20A001A1013908D9
:100DF000A30038088A017A208A110A12031D692F7C
:100E000062308A010B2069308A010B2072308A011E
:100E10000B2069308A010B206E308A010B20633071
:100E20008A010B2069308A010B2020308A010B20B7
:100E30006F308A010B2079308A010B2075308A01CE
:100E40000B206E308A010B2063308A010B20753035
:100E50008A010B2020308A010B2068308A010B2088
:100E600061308A010B206D308A010B206C308A01C1
:100E70000B2065308A010B2073308A010B2069300A
:100E80008A010B206E308A010B2069308A010B2009
:100E900020308A010B2067308A010B2069308A01DB
:100EA0000B2072308A010B2073308A010B206930CD
:100EB0008A010B206E308A010B203A308A010B2008
:100EC00020308A010B200D308A010B200A308A0164
:100ED0000B20A001A1013908A30038088A017A205B
:100EE0008A110A12031DEF2F8A010220B800B901EE
:100EF0003808A0003908A100A3016B308A017720CF
:100F0000BC003808A0003908A100A3016D308A0197
:100F10007720BE003C0884003E088A018C20BE0079
:100F2000BF003808A0003908A100A30174308A016D
:100F30007720C0003E083F04840040088A018C20CE
:100F4000C000C100400841048A019020C000640034
:100F500040088A110A120319EF2F64308A010B200E
:100F60006F308A010B2067308A010B2072308A01B2
:100F70000B2075308A010B2020308A010B2068304D
:100F80008A010B2061308A010B206D308A010B2011
:100F90006C308A010B2065308A010B2020308A01D9
:100FA0000B2067308A010B2069308A010B207230D8
:100FB0008A010B2069308A010B206E308A010B20D8
:100FC00020308A010B200D308A010B200A308A0163
:100FD0000B208A010220B800B9018A01782FA001F4
:100FE000A1013B08A3003A088A017A208A150A1257
:100FF000031D602869308A010B206B308A010B20A9
:1010000069308A010B206E308A010B2063308A011F
:101010000B2069308A010B2020308A010B206F30B1
:101020008A010B2079308A010B2075308A010B2050
:101030006E308A010B2063308A010B2075308A01E3
:101040000B2020308A010B2068308A010B20613090
:101050008A010B206D308A010B206C308A010B2035
:1010600065308A010B2073308A010B2069308A01B8
:101070000B206E308A010B2069308A010B20203052
:101080008A010B2067308A010B2069308A010B200E
:1010900072308A010B2073308A010B2069308A017B
:1010A0000B206E308A010B203A308A010B20203051
:1010B0008A010B200D308A010B200A308A010B2097
:1010C000A001A1013B08A3003A088A017A208A15F1
:1010D0000A12031DE7288A010220BA00BB013A0860
:1010E000A0003B08A100A3016B308A017720BC005F
:1010F0003A08A0003B08A100A3016D308A017720C7
:10110000BE003C0884003E088A018C20BE00BF005F
:101110003A08A0003B08A100A30174308A0177209F
:10112000C0003E083F04840040088A018C20C000B3
:10113000C100400841048A019020C00064004008BA
:101140008A150A120319E72864308A010B206F30D0
:101150008A010B2067308A010B2072308A010B2034
:1011600075308A010B2020308A010B2068308A01FB
:101170000B2061308A010B206D308A010B206C300E
:101180008A010B2065308A010B2020308A010B2058
:1011900067308A010B2069308A010B2072308A0186
:1011A0000B2069308A010B206E308A010B20203021
:1011B0008A010B200D308A010B200A308A010B2096
:1011C0008A010220BA00BB018A150A126F280800A2
:1011D00062308A010B2069308A010B2072308A014B
:1011E0000B2020308A010B2064308A010B206130F3
:1011F0008A010B2068308A010B2061308A010B20A4
:1012000020308A010B206F308A010B2079308A014F
:101210000B206E308A010B2061308A010B206D306B
:101220008A010B2061308A010B206B308A010B2070
:1012300020308A010B2069308A010B2063308A013B
:101240000B2069308A010B206E308A010B20203080
:101250008A010B2073308A010B2070308A010B2029
:1012600061308A010B2063308A010B2065308A01CE
:101270000B2027308A010B2065308A010B2020309B
:101280008A010B2062308A010B2061308A010B2019
:1012900073308A010B2069308A010B206E308A017D
:1012A0000B203A308A010B2020308A010B200D30B0
:1012B0008A010B200A308A010B208A010220203C7F
:1012C0008A150A12031D5D298A010220B800B9019E
:0A12D000B801B901BA01BB01080022
:02400E00753FFC
:00000001FF
