:020000040000FA
:10000000B2017D28A70009110910091083160911F2
:1000100009100910880183122708B2182A283A30DB
:10002000A100FC3054203330A6003D201030A10048
:10003000683054203D20643053203D203830292042
:100040000C3029200130292006302920B21427083D
:100050002A283214A600321C38280910033C031C3D
:100060003D283D200730A100D03054200314080063
:100070003214FE3C03197828091409152608880053
:10008000321009113230532003140800A301A200DA
:10009000FF30A207031CA307031C78280330A1002C
:1000A000DF3054204828A101E83EA000A109FC301F
:1000B000031C5D28A00703185A28A0076400A10F9D
:1000C0005A2820186328A01C672800006728080009
:1000D0000310A00DA10DFF3E031868282008782802
:1000E0000310A10CA00CFF3E0318702820087828EC
:1000F000831303138312640008008316C030860044
:100100008701831203308600831607309F00643016
:1001100083128A0146200930C0000C30C10006302D
:10012000C2000330C3000130B8000330B900023010
:10013000BA000630BB000430BC000C30BD000830F3
:10014000BE000930BF000130C7008701C801FE3082
:100150008A01022040308A01022000308A010220F8
:100160000E308A01022015308A0102201F308A01D8
:10017000022015308A0102200E308A010220003050
:100180008A01022064008A110A12061F0E29C60184
:100190006400043046028A110A1203180C2946082A
:1001A000403E840000088600470887006400470836
:1001B000803C8A110A12031DE2280130C7008A110F
:1001C0000A12E4280310C70D64004808133C8A1182
:1001D0000A12031DEF28C8018A110A12F028C80A62
:1001E000FE308A01022001308A010220FE308A019D
:1001F000022080304807C400C501C50D44088A01AB
:10020000022000308A01022064308A014620C60A9A
:100210008A110A12031DC8288A01C22864008A11A3
:100220000A12861F6229C6016400043046028A1140
:100230000A12031860294608033CC4000030031C5E
:10024000FF3EC5004408403E840000088600470881
:10025000870064004708013C8A110A12031D3529F2
:100260008030C7008A110A1237290310C70C6400B6
:100270004808003C8A110A12031D43291330C800A4
:100280008A110A124429C803FE308A010220013073
:100290008A010220FE308A01022080304807C40013
:1002A000C501C50D44088A01022000308A010220E0
:1002B00064308A014620C60A8A110A12031D1429D5
:1002C0008A010E298A01C22864008A110A12061FB7
:1002D000B029C6016400083046028A110A120318C8
:1002E000AE294608383E840000088600470887008B
:1002F00064004708803C8A110A12031D84290130DA
:10030000C7008A110A1286290310C70D6400480825
:10031000133C8A110A12031D9129C8018A110A127D
:100320009229C80AFE308A01022001308A01022087
:10033000FE308A01022080304807C400C501C50D87
:1003400044088A01022000308A01022064308A01B8
:100350004620C60A8A110A12031D6A298A016429E5
:1003600064008A110A12861F042AC601640008303C
:1003700046028A110A120318022A4608073CC400E2
:100380000030031CFF3EC5004408383E84000008CE
:1003900086004708870064004708013C8A110A125A
:1003A000031DD7298030C7008A110A12D9290310EA
:1003B000C70C64004808003C8A110A12031DE52995
:1003C0001330C8008A110A12E629C803FE308A01D8
:1003D000022001308A010220FE308A010220803092
:1003E0004807C400C501C50D44088A010220003039
:1003F0008A01022064308A014620C60A8A110A1244
:0C040000031DB6298A01B0298A01642975
:02400E00753FFC
:00000001FF
